{
  "_format": "hh-sol-artifact-1",
  "contractName": "CNSRegistry",
  "sourceName": "contracts/CNSRegistry.sol",
  "abi": [
    {
      "inputs": [],
      "stateMutability": "nonpayable",
      "type": "constructor"
    },
    {
      "anonymous": false,
      "inputs": [
        {
          "indexed": true,
          "internalType": "address",
          "name": "owner",
          "type": "address"
        },
        {
          "indexed": true,
          "internalType": "address",
          "name": "approved",
          "type": "address"
        },
        {
          "indexed": true,
          "internalType": "uint256",
          "name": "tokenId",
          "type": "uint256"
        }
      ],
      "name": "Approval",
      "type": "event"
    },
    {
      "anonymous": false,
      "inputs": [
        {
          "indexed": true,
          "internalType": "address",
          "name": "owner",
          "type": "address"
        },
        {
          "indexed": true,
          "internalType": "address",
          "name": "operator",
          "type": "address"
        },
        {
          "indexed": false,
          "internalType": "bool",
          "name": "approved",
          "type": "bool"
        }
      ],
      "name": "ApprovalForAll",
      "type": "event"
    },
    {
      "anonymous": false,
      "inputs": [
        {
          "indexed": true,
          "internalType": "address",
          "name": "who",
          "type": "address"
        },
        {
          "indexed": false,
          "internalType": "string",
          "name": "name",
          "type": "string"
        }
      ],
      "name": "Registered",
      "type": "event"
    },
    {
      "anonymous": false,
      "inputs": [
        {
          "indexed": true,
          "internalType": "address",
          "name": "from",
          "type": "address"
        },
        {
          "indexed": true,
          "internalType": "address",
          "name": "to",
          "type": "address"
        },
        {
          "indexed": true,
          "internalType": "uint256",
          "name": "tokenId",
          "type": "uint256"
        }
      ],
      "name": "Transfer",
      "type": "event"
    },
    {
      "inputs": [
        {
          "internalType": "uint256",
          "name": "",
          "type": "uint256"
        }
      ],
      "name": "CNames",
      "outputs": [
        {
          "internalType": "address",
          "name": "owner",
          "type": "address"
        },
        {
          "internalType": "bool",
          "name": "listed",
          "type": "bool"
        },
        {
          "internalType": "uint256",
          "name": "price",
          "type": "uint256"
        },
        {
          "internalType": "uint256",
          "name": "sold",
          "type": "uint256"
        }
      ],
      "stateMutability": "view",
      "type": "function"
    },
    {
      "inputs": [
        {
          "internalType": "address",
          "name": "to",
          "type": "address"
        },
        {
          "internalType": "uint256",
          "name": "tokenId",
          "type": "uint256"
        }
      ],
      "name": "approve",
      "outputs": [],
      "stateMutability": "nonpayable",
      "type": "function"
    },
    {
      "inputs": [
        {
          "internalType": "address",
          "name": "owner",
          "type": "address"
        }
      ],
      "name": "balanceOf",
      "outputs": [
        {
          "internalType": "uint256",
          "name": "",
          "type": "uint256"
        }
      ],
      "stateMutability": "view",
      "type": "function"
    },
    {
      "inputs": [
        {
          "internalType": "uint256",
          "name": "_tokenId",
          "type": "uint256"
        }
      ],
      "name": "buyNFT",
      "outputs": [],
      "stateMutability": "payable",
      "type": "function"
    },
    {
      "inputs": [
        {
          "internalType": "uint256",
          "name": "",
          "type": "uint256"
        }
      ],
      "name": "favorited",
      "outputs": [
        {
          "internalType": "address",
          "name": "",
          "type": "address"
        }
      ],
      "stateMutability": "view",
      "type": "function"
    },
    {
      "inputs": [
        {
          "internalType": "address",
          "name": "_address",
          "type": "address"
        }
      ],
      "name": "getAddressAvicon",
      "outputs": [
        {
          "internalType": "string",
          "name": "",
          "type": "string"
        }
      ],
      "stateMutability": "view",
      "type": "function"
    },
    {
      "inputs": [
        {
          "internalType": "uint256",
          "name": "tokenId",
          "type": "uint256"
        }
      ],
      "name": "getApproved",
      "outputs": [
        {
          "internalType": "address",
          "name": "",
          "type": "address"
        }
      ],
      "stateMutability": "view",
      "type": "function"
    },
    {
      "inputs": [
        {
          "internalType": "uint256",
          "name": "_tokenId",
          "type": "uint256"
        }
      ],
      "name": "getNft",
      "outputs": [
        {
          "internalType": "address",
          "name": "",
          "type": "address"
        },
        {
          "internalType": "bool",
          "name": "",
          "type": "bool"
        },
        {
          "internalType": "uint256",
          "name": "",
          "type": "uint256"
        },
        {
          "internalType": "uint256",
          "name": "",
          "type": "uint256"
        },
        {
          "internalType": "address[]",
          "name": "",
          "type": "address[]"
        }
      ],
      "stateMutability": "view",
      "type": "function"
    },
    {
      "inputs": [
        {
          "internalType": "address",
          "name": "",
          "type": "address"
        }
      ],
      "name": "imageToAddress",
      "outputs": [
        {
          "internalType": "string",
          "name": "",
          "type": "string"
        }
      ],
      "stateMutability": "view",
      "type": "function"
    },
    {
      "inputs": [
        {
          "internalType": "address",
          "name": "owner",
          "type": "address"
        },
        {
          "internalType": "address",
          "name": "operator",
          "type": "address"
        }
      ],
      "name": "isApprovedForAll",
      "outputs": [
        {
          "internalType": "bool",
          "name": "",
          "type": "bool"
        }
      ],
      "stateMutability": "view",
      "type": "function"
    },
    {
      "inputs": [
        {
          "internalType": "uint256",
          "name": "_tokenId",
          "type": "uint256"
        }
      ],
      "name": "likeNft",
      "outputs": [],
      "stateMutability": "nonpayable",
      "type": "function"
    },
    {
      "inputs": [],
      "name": "name",
      "outputs": [
        {
          "internalType": "string",
          "name": "",
          "type": "string"
        }
      ],
      "stateMutability": "view",
      "type": "function"
    },
    {
      "inputs": [
        {
          "internalType": "uint256",
          "name": "tokenId",
          "type": "uint256"
        }
      ],
      "name": "ownerOf",
      "outputs": [
        {
          "internalType": "address",
          "name": "",
          "type": "address"
        }
      ],
      "stateMutability": "view",
      "type": "function"
    },
    {
      "inputs": [
        {
          "internalType": "string",
          "name": "",
          "type": "string"
        }
      ],
      "name": "registeredNames",
      "outputs": [
        {
          "internalType": "address",
          "name": "",
          "type": "address"
        }
      ],
      "stateMutability": "view",
      "type": "function"
    },
    {
      "inputs": [
        {
          "internalType": "string",
          "name": "_name",
          "type": "string"
        },
        {
          "internalType": "string",
          "name": "_bgColor",
          "type": "string"
        }
      ],
      "name": "reserveName",
      "outputs": [],
      "stateMutability": "nonpayable",
      "type": "function"
    },
    {
      "inputs": [
        {
          "internalType": "address",
          "name": "from",
          "type": "address"
        },
        {
          "internalType": "address",
          "name": "to",
          "type": "address"
        },
        {
          "internalType": "uint256",
          "name": "tokenId",
          "type": "uint256"
        }
      ],
      "name": "safeTransferFrom",
      "outputs": [],
      "stateMutability": "nonpayable",
      "type": "function"
    },
    {
      "inputs": [
        {
          "internalType": "address",
          "name": "from",
          "type": "address"
        },
        {
          "internalType": "address",
          "name": "to",
          "type": "address"
        },
        {
          "internalType": "uint256",
          "name": "tokenId",
          "type": "uint256"
        },
        {
          "internalType": "bytes",
          "name": "data",
          "type": "bytes"
        }
      ],
      "name": "safeTransferFrom",
      "outputs": [],
      "stateMutability": "nonpayable",
      "type": "function"
    },
    {
      "inputs": [
        {
          "internalType": "uint256",
          "name": "_tokenId",
          "type": "uint256"
        },
        {
          "internalType": "uint256",
          "name": "_price",
          "type": "uint256"
        }
      ],
      "name": "sell",
      "outputs": [],
      "stateMutability": "nonpayable",
      "type": "function"
    },
    {
      "inputs": [
        {
          "internalType": "string",
          "name": "_imageUri",
          "type": "string"
        }
      ],
      "name": "setAddressAvicon",
      "outputs": [],
      "stateMutability": "nonpayable",
      "type": "function"
    },
    {
      "inputs": [
        {
          "internalType": "address",
          "name": "operator",
          "type": "address"
        },
        {
          "internalType": "bool",
          "name": "approved",
          "type": "bool"
        }
      ],
      "name": "setApprovalForAll",
      "outputs": [],
      "stateMutability": "nonpayable",
      "type": "function"
    },
    {
      "inputs": [
        {
          "internalType": "bytes4",
          "name": "interfaceId",
          "type": "bytes4"
        }
      ],
      "name": "supportsInterface",
      "outputs": [
        {
          "internalType": "bool",
          "name": "",
          "type": "bool"
        }
      ],
      "stateMutability": "view",
      "type": "function"
    },
    {
      "inputs": [],
      "name": "symbol",
      "outputs": [
        {
          "internalType": "string",
          "name": "",
          "type": "string"
        }
      ],
      "stateMutability": "view",
      "type": "function"
    },
    {
      "inputs": [
        {
          "internalType": "uint256",
          "name": "index",
          "type": "uint256"
        }
      ],
      "name": "tokenByIndex",
      "outputs": [
        {
          "internalType": "uint256",
          "name": "",
          "type": "uint256"
        }
      ],
      "stateMutability": "view",
      "type": "function"
    },
    {
      "inputs": [
        {
          "internalType": "address",
          "name": "owner",
          "type": "address"
        },
        {
          "internalType": "uint256",
          "name": "index",
          "type": "uint256"
        }
      ],
      "name": "tokenOfOwnerByIndex",
      "outputs": [
        {
          "internalType": "uint256",
          "name": "",
          "type": "uint256"
        }
      ],
      "stateMutability": "view",
      "type": "function"
    },
    {
      "inputs": [
        {
          "internalType": "uint256",
          "name": "tokenId",
          "type": "uint256"
        }
      ],
      "name": "tokenURI",
      "outputs": [
        {
          "internalType": "string",
          "name": "",
          "type": "string"
        }
      ],
      "stateMutability": "view",
      "type": "function"
    },
    {
      "inputs": [],
      "name": "totalSupply",
      "outputs": [
        {
          "internalType": "uint256",
          "name": "",
          "type": "uint256"
        }
      ],
      "stateMutability": "view",
      "type": "function"
    },
    {
      "inputs": [
        {
          "internalType": "address",
          "name": "from",
          "type": "address"
        },
        {
          "internalType": "address",
          "name": "to",
          "type": "address"
        },
        {
          "internalType": "uint256",
          "name": "tokenId",
          "type": "uint256"
        }
      ],
      "name": "transferFrom",
      "outputs": [],
      "stateMutability": "nonpayable",
      "type": "function"
    }
  ],
  "bytecode": "0x608060405260405180610100016040528060d3815260200162004eaf60d3913960109080519060200190620000369291906200011d565b5060405180608001604052806056815260200162004f826056913960119080519060200190620000689291906200011d565b503480156200007657600080fd5b506040518060400160405280600b81526020017f454e5352656769737472790000000000000000000000000000000000000000008152506040518060400160405280600481526020017f454e5352000000000000000000000000000000000000000000000000000000008152508160009080519060200190620000fb9291906200011d565b508060019080519060200190620001149291906200011d565b50505062000232565b8280546200012b90620001cd565b90600052602060002090601f0160209004810192826200014f57600085556200019b565b82601f106200016a57805160ff19168380011785556200019b565b828001600101855582156200019b579182015b828111156200019a5782518255916020019190600101906200017d565b5b509050620001aa9190620001ae565b5090565b5b80821115620001c9576000816000905550600101620001af565b5090565b60006002820490506001821680620001e657607f821691505b60208210811415620001fd57620001fc62000203565b5b50919050565b7f4e487b7100000000000000000000000000000000000000000000000000000000600052602260045260246000fd5b614c6d80620002426000396000f3fe60806040526004361061019c5760003560e01c80634f6ccce7116100ec57806395d89b411161008a578063c87b56dd11610064578063c87b56dd14610640578063d51093981461067d578063d79875eb146106a6578063e985e9c5146106cf5761019c565b806395d89b41146105c3578063a22cb465146105ee578063b88d4fde146106175761019c565b80636352211e116100c65780636352211e146104e057806370a082311461051d578063730da2411461055a5780638c484ffa1461059a5761019c565b80634f6ccce71461044a57806351ed8288146104875780635f08ea2e146104a35761019c565b806323b872dd1161015957806341f63bfd1161013357806341f63bfd1461037a57806342842e0e146103bb578063468dd71e146103e45780634718db95146104215761019c565b806323b872dd146102d75780632f745c59146103005780633f516f6e1461033d5761019c565b806301ffc9a7146101a157806306fdde03146101de578063081812fc14610209578063095ea7b31461024657806318160ddd1461026f5780631abdf9011461029a575b600080fd5b3480156101ad57600080fd5b506101c860048036038101906101c39190613447565b61070c565b6040516101d59190613d7b565b60405180910390f35b3480156101ea57600080fd5b506101f361071e565b6040516102009190613d96565b60405180910390f35b34801561021557600080fd5b50610230600480360381019061022b9190613546565b6107b0565b60405161023d9190613c75565b60405180910390f35b34801561025257600080fd5b5061026d6004803603810190610268919061340b565b6107f6565b005b34801561027b57600080fd5b5061028461090e565b6040516102919190614058565b60405180910390f35b3480156102a657600080fd5b506102c160048036038101906102bc9190613546565b61091b565b6040516102ce9190613c75565b60405180910390f35b3480156102e357600080fd5b506102fe60048036038101906102f99190613305565b61094e565b005b34801561030c57600080fd5b506103276004803603810190610322919061340b565b6109ae565b6040516103349190614058565b60405180910390f35b34801561034957600080fd5b50610364600480360381019061035f91906132a0565b610a53565b6040516103719190613d96565b60405180910390f35b34801561038657600080fd5b506103a1600480360381019061039c9190613546565b610b2a565b6040516103b2959493929190613d21565b60405180910390f35b3480156103c757600080fd5b506103e260048036038101906103dd9190613305565b610c2a565b005b3480156103f057600080fd5b5061040b60048036038101906104069190613499565b610c4a565b6040516104189190613c75565b60405180910390f35b34801561042d57600080fd5b50610448600480360381019061044391906134da565b610c93565b005b34801561045657600080fd5b50610471600480360381019061046c9190613546565b610f5f565b60405161047e9190614058565b60405180910390f35b6104a1600480360381019061049c9190613546565b610ff6565b005b3480156104af57600080fd5b506104ca60048036038101906104c591906132a0565b6112e0565b6040516104d79190613d96565b60405180910390f35b3480156104ec57600080fd5b5061050760048036038101906105029190613546565b611380565b6040516105149190613c75565b60405180910390f35b34801561052957600080fd5b50610544600480360381019061053f91906132a0565b611432565b6040516105519190614058565b60405180910390f35b34801561056657600080fd5b50610581600480360381019061057c9190613546565b6114ea565b6040516105919493929190613cdc565b60405180910390f35b3480156105a657600080fd5b506105c160048036038101906105bc9190613546565b611547565b005b3480156105cf57600080fd5b506105d86116bb565b6040516105e59190613d96565b60405180910390f35b3480156105fa57600080fd5b50610615600480360381019061061091906133cf565b61174d565b005b34801561062357600080fd5b5061063e60048036038101906106399190613354565b611763565b005b34801561064c57600080fd5b5061066760048036038101906106629190613546565b6117c5565b6040516106749190613d96565b60405180910390f35b34801561068957600080fd5b506106a4600480360381019061069f9190613499565b6117d7565b005b3480156106b257600080fd5b506106cd60048036038101906106c8919061356f565b61182e565b005b3480156106db57600080fd5b506106f660048036038101906106f191906132c9565b611957565b6040516107039190613d7b565b60405180910390f35b6000610717826119eb565b9050919050565b60606000805461072d90614361565b80601f016020809104026020016040519081016040528092919081815260200182805461075990614361565b80156107a65780601f1061077b576101008083540402835291602001916107a6565b820191906000526020600020905b81548152906001019060200180831161078957829003601f168201915b5050505050905090565b60006107bb82611a65565b6004600083815260200190815260200160002060009054906101000a900473ffffffffffffffffffffffffffffffffffffffff169050919050565b600061080182611380565b90508073ffffffffffffffffffffffffffffffffffffffff168373ffffffffffffffffffffffffffffffffffffffff161415610872576040517f08c379a000000000000000000000000000000000000000000000000000000000815260040161086990613ff8565b60405180910390fd5b8073ffffffffffffffffffffffffffffffffffffffff16610891611ab0565b73ffffffffffffffffffffffffffffffffffffffff1614806108c057506108bf816108ba611ab0565b611957565b5b6108ff576040517f08c379a00000000000000000000000000000000000000000000000000000000081526004016108f690613f38565b60405180910390fd5b6109098383611ab8565b505050565b6000600880549050905090565b600e6020528060005260406000206000915054906101000a900473ffffffffffffffffffffffffffffffffffffffff1681565b61095f610959611ab0565b82611b71565b61099e576040517f08c379a000000000000000000000000000000000000000000000000000000000815260040161099590614038565b60405180910390fd5b6109a9838383611c06565b505050565b60006109b983611432565b82106109fa576040517f08c379a00000000000000000000000000000000000000000000000000000000081526004016109f190613db8565b60405180910390fd5b600660008473ffffffffffffffffffffffffffffffffffffffff1673ffffffffffffffffffffffffffffffffffffffff168152602001908152602001600020600083815260200190815260200160002054905092915050565b60606000600f60008473ffffffffffffffffffffffffffffffffffffffff1673ffffffffffffffffffffffffffffffffffffffff1681526020019081526020016000208054610aa190614361565b80601f0160208091040260200160405190810160405280929190818152602001828054610acd90614361565b8015610b1a5780601f10610aef57610100808354040283529160200191610b1a565b820191906000526020600020905b815481529060010190602001808311610afd57829003601f168201915b5050505050905080915050919050565b60008060008060606000600c600088815260200190815260200160002090508060000160009054906101000a900473ffffffffffffffffffffffffffffffffffffffff168160000160149054906101000a900460ff16826001015483600201548460030180805480602002602001604051908101604052809291908181526020018280548015610c0f57602002820191906000526020600020905b8160009054906101000a900473ffffffffffffffffffffffffffffffffffffffff1673ffffffffffffffffffffffffffffffffffffffff1681526020019060010190808311610bc5575b50505050509050955095509550955095505091939590929450565b610c4583838360405180602001604052806000815250611763565b505050565b600d818051602081018201805184825260208301602085012081835280955050505050506000915054906101000a900473ffffffffffffffffffffffffffffffffffffffff1681565b600073ffffffffffffffffffffffffffffffffffffffff16600d83604051610cbb9190613b53565b908152602001604051809103902060009054906101000a900473ffffffffffffffffffffffffffffffffffffffff1673ffffffffffffffffffffffffffffffffffffffff1614610d40576040517f08c379a0000000000000000000000000000000000000000000000000000000008152600401610d3790613ed8565b60405180910390fd5b6000601082601185604051602001610d5b9493929190613bb0565b6040516020818303038152906040529050600083604051602001610d7f9190613b8e565b6040516020818303038152906040529050610d9981611e6d565b6000610dcd82610da885611f06565b604051602001610db9929190613bf9565b604051602081830303815290604052611f06565b9050600081604051602001610de29190613c3e565b60405160208183030381529060405290506000610dff600b612090565b9050610e0b338261209e565b610e1581836120bc565b6000600c60008381526020019081526020016000209050338160000160006101000a81548173ffffffffffffffffffffffffffffffffffffffff021916908373ffffffffffffffffffffffffffffffffffffffff16021790555060008160000160146101000a81548160ff021916908315150217905550600081600101819055506000816002018190555033600d89604051610eb19190613b53565b908152602001604051809103902060006101000a81548173ffffffffffffffffffffffffffffffffffffffff021916908373ffffffffffffffffffffffffffffffffffffffff160217905550610f07600b612130565b3373ffffffffffffffffffffffffffffffffffffffff167fb3eccf73f39b1c07947c780b2b39df2a1bb058b4037b0a42d0881ca1a028a13289604051610f4d9190613d96565b60405180910390a25050505050505050565b6000610f6961090e565b8210610faa576040517f08c379a0000000000000000000000000000000000000000000000000000000008152600401610fa190614018565b60405180910390fd5b60088281548110610fe4577f4e487b7100000000000000000000000000000000000000000000000000000000600052603260045260246000fd5b90600052602060002001549050919050565b3373ffffffffffffffffffffffffffffffffffffffff16600c600083815260200190815260200160002060000160009054906101000a900473ffffffffffffffffffffffffffffffffffffffff1673ffffffffffffffffffffffffffffffffffffffff16141561109b576040517f08c379a000000000000000000000000000000000000000000000000000000000815260040161109290613e38565b60405180910390fd5b60011515600c600083815260200190815260200160002060000160149054906101000a900460ff16151514611105576040517f08c379a00000000000000000000000000000000000000000000000000000000081526004016110fc90613fb8565b60405180910390fd5b34600c600083815260200190815260200160002060010154111561115e576040517f08c379a000000000000000000000000000000000000000000000000000000000815260040161115590613e78565b60405180910390fd5b6000600c600083815260200190815260200160002060000160009054906101000a900473ffffffffffffffffffffffffffffffffffffffff1673ffffffffffffffffffffffffffffffffffffffff16346040516111ba90613c60565b60006040518083038185875af1925050503d80600081146111f7576040519150601f19603f3d011682016040523d82523d6000602084013e6111fc565b606091505b50509050801561124857611247600c600084815260200190815260200160002060000160009054906101000a900473ffffffffffffffffffffffffffffffffffffffff163384611c06565b5b6000600c60008481526020019081526020016000209050338160000160006101000a81548173ffffffffffffffffffffffffffffffffffffffff021916908373ffffffffffffffffffffffffffffffffffffffff16021790555060008160000160146101000a81548160ff02191690831515021790555060018160020160008282546112d49190614196565b92505081905550505050565b600f60205280600052604060002060009150905080546112ff90614361565b80601f016020809104026020016040519081016040528092919081815260200182805461132b90614361565b80156113785780601f1061134d57610100808354040283529160200191611378565b820191906000526020600020905b81548152906001019060200180831161135b57829003601f168201915b505050505081565b6000806002600084815260200190815260200160002060009054906101000a900473ffffffffffffffffffffffffffffffffffffffff169050600073ffffffffffffffffffffffffffffffffffffffff168173ffffffffffffffffffffffffffffffffffffffff161415611429576040517f08c379a000000000000000000000000000000000000000000000000000000000815260040161142090613fd8565b60405180910390fd5b80915050919050565b60008073ffffffffffffffffffffffffffffffffffffffff168273ffffffffffffffffffffffffffffffffffffffff1614156114a3576040517f08c379a000000000000000000000000000000000000000000000000000000000815260040161149a90613ef8565b60405180910390fd5b600360008373ffffffffffffffffffffffffffffffffffffffff1673ffffffffffffffffffffffffffffffffffffffff168152602001908152602001600020549050919050565b600c6020528060005260406000206000915090508060000160009054906101000a900473ffffffffffffffffffffffffffffffffffffffff16908060000160149054906101000a900460ff16908060010154908060020154905084565b3373ffffffffffffffffffffffffffffffffffffffff16600e600083815260200190815260200160002060009054906101000a900473ffffffffffffffffffffffffffffffffffffffff1673ffffffffffffffffffffffffffffffffffffffff1614156115e9576040517f08c379a00000000000000000000000000000000000000000000000000000000081526004016115e090613f78565b60405180910390fd5b6000600c6000838152602001908152602001600020905080600301339080600181540180825580915050600190039060005260206000200160009091909190916101000a81548173ffffffffffffffffffffffffffffffffffffffff021916908373ffffffffffffffffffffffffffffffffffffffff16021790555033600e600084815260200190815260200160002060006101000a81548173ffffffffffffffffffffffffffffffffffffffff021916908373ffffffffffffffffffffffffffffffffffffffff1602179055505050565b6060600180546116ca90614361565b80601f01602080910402602001604051908101604052809291908181526020018280546116f690614361565b80156117435780601f1061171857610100808354040283529160200191611743565b820191906000526020600020905b81548152906001019060200180831161172657829003601f168201915b5050505050905090565b61175f611758611ab0565b8383612146565b5050565b61177461176e611ab0565b83611b71565b6117b3576040517f08c379a00000000000000000000000000000000000000000000000000000000081526004016117aa90614038565b60405180910390fd5b6117bf848484846122b3565b50505050565b60606117d08261230f565b9050919050565b80600f60003373ffffffffffffffffffffffffffffffffffffffff1673ffffffffffffffffffffffffffffffffffffffff168152602001908152602001600020908051906020019061182a9291906130c4565b5050565b3373ffffffffffffffffffffffffffffffffffffffff16600c600084815260200190815260200160002060000160009054906101000a900473ffffffffffffffffffffffffffffffffffffffff1673ffffffffffffffffffffffffffffffffffffffff16146118d2576040517f08c379a00000000000000000000000000000000000000000000000000000000081526004016118c990613e58565b60405180910390fd5b60008111611915576040517f08c379a000000000000000000000000000000000000000000000000000000000815260040161190c90613f98565b60405180910390fd5b6000600c6000848152602001908152602001600020905060018160000160146101000a81548160ff021916908315150217905550818160010181905550505050565b6000600560008473ffffffffffffffffffffffffffffffffffffffff1673ffffffffffffffffffffffffffffffffffffffff16815260200190815260200160002060008373ffffffffffffffffffffffffffffffffffffffff1673ffffffffffffffffffffffffffffffffffffffff16815260200190815260200160002060009054906101000a900460ff16905092915050565b60007f780e9d63000000000000000000000000000000000000000000000000000000007bffffffffffffffffffffffffffffffffffffffffffffffffffffffff1916827bffffffffffffffffffffffffffffffffffffffffffffffffffffffff19161480611a5e5750611a5d82612422565b5b9050919050565b611a6e81612504565b611aad576040517f08c379a0000000000000000000000000000000000000000000000000000000008152600401611aa490613fd8565b60405180910390fd5b50565b600033905090565b816004600083815260200190815260200160002060006101000a81548173ffffffffffffffffffffffffffffffffffffffff021916908373ffffffffffffffffffffffffffffffffffffffff160217905550808273ffffffffffffffffffffffffffffffffffffffff16611b2b83611380565b73ffffffffffffffffffffffffffffffffffffffff167f8c5be1e5ebec7d5bd14f71427d1e84f3dd0314c0f7b2291e5b200ac8c7c3b92560405160405180910390a45050565b600080611b7d83611380565b90508073ffffffffffffffffffffffffffffffffffffffff168473ffffffffffffffffffffffffffffffffffffffff161480611bbf5750611bbe8185611957565b5b80611bfd57508373ffffffffffffffffffffffffffffffffffffffff16611be5846107b0565b73ffffffffffffffffffffffffffffffffffffffff16145b91505092915050565b8273ffffffffffffffffffffffffffffffffffffffff16611c2682611380565b73ffffffffffffffffffffffffffffffffffffffff1614611c7c576040517f08c379a0000000000000000000000000000000000000000000000000000000008152600401611c7390613df8565b60405180910390fd5b600073ffffffffffffffffffffffffffffffffffffffff168273ffffffffffffffffffffffffffffffffffffffff161415611cec576040517f08c379a0000000000000000000000000000000000000000000000000000000008152600401611ce390613e98565b60405180910390fd5b611cf7838383612570565b611d02600082611ab8565b6001600360008573ffffffffffffffffffffffffffffffffffffffff1673ffffffffffffffffffffffffffffffffffffffff1681526020019081526020016000206000828254611d529190614277565b925050819055506001600360008473ffffffffffffffffffffffffffffffffffffffff1673ffffffffffffffffffffffffffffffffffffffff1681526020019081526020016000206000828254611da99190614196565b92505081905550816002600083815260200190815260200160002060006101000a81548173ffffffffffffffffffffffffffffffffffffffff021916908373ffffffffffffffffffffffffffffffffffffffff160217905550808273ffffffffffffffffffffffffffffffffffffffff168473ffffffffffffffffffffffffffffffffffffffff167fddf252ad1be2c89b69c2b068fc378daa952ba7f163c4a11628f55a4df523b3ef60405160405180910390a4611e68838383612580565b505050565b611f0381604051602401611e819190613d96565b6040516020818303038152906040527f41304fac000000000000000000000000000000000000000000000000000000007bffffffffffffffffffffffffffffffffffffffffffffffffffffffff19166020820180517bffffffffffffffffffffffffffffffffffffffffffffffffffffffff8381831617835250505050612585565b50565b6060600082511415611f295760405180602001604052806000815250905061208b565b6000604051806060016040528060408152602001614bf86040913990506000600360028551611f589190614196565b611f6291906141ec565b6004611f6e919061421d565b67ffffffffffffffff811115611fad577f4e487b7100000000000000000000000000000000000000000000000000000000600052604160045260246000fd5b6040519080825280601f01601f191660200182016040528015611fdf5781602001600182028036833780820191505090505b509050600182016020820185865187015b8082101561204b576003820191508151603f8160121c168501518453600184019350603f81600c1c168501518453600184019350603f8160061c168501518453600184019350603f8116850151845360018401935050611ff0565b5050600386510660018114612067576002811461207a57612082565b603d6001830353603d6002830353612082565b603d60018303535b50505080925050505b919050565b600081600001549050919050565b6120b88282604051806020016040528060008152506125ae565b5050565b6120c582612504565b612104576040517f08c379a00000000000000000000000000000000000000000000000000000000081526004016120fb90613f18565b60405180910390fd5b80600a6000848152602001908152602001600020908051906020019061212b9291906130c4565b505050565b6001816000016000828254019250508190555050565b8173ffffffffffffffffffffffffffffffffffffffff168373ffffffffffffffffffffffffffffffffffffffff1614156121b5576040517f08c379a00000000000000000000000000000000000000000000000000000000081526004016121ac90613eb8565b60405180910390fd5b80600560008573ffffffffffffffffffffffffffffffffffffffff1673ffffffffffffffffffffffffffffffffffffffff16815260200190815260200160002060008473ffffffffffffffffffffffffffffffffffffffff1673ffffffffffffffffffffffffffffffffffffffff16815260200190815260200160002060006101000a81548160ff0219169083151502179055508173ffffffffffffffffffffffffffffffffffffffff168373ffffffffffffffffffffffffffffffffffffffff167f17307eab39ab6107e8899845ad3d59bd9653f200f220920489ca2b5937696c31836040516122a69190613d7b565b60405180910390a3505050565b6122be848484611c06565b6122ca84848484612609565b612309576040517f08c379a000000000000000000000000000000000000000000000000000000000815260040161230090613dd8565b60405180910390fd5b50505050565b606061231a82611a65565b6000600a6000848152602001908152602001600020805461233a90614361565b80601f016020809104026020016040519081016040528092919081815260200182805461236690614361565b80156123b35780601f10612388576101008083540402835291602001916123b3565b820191906000526020600020905b81548152906001019060200180831161239657829003601f168201915b5050505050905060006123c46127a0565b90506000815114156123da57819250505061241d565b60008251111561240f5780826040516020016123f7929190613b6a565b6040516020818303038152906040529250505061241d565b612418846127b7565b925050505b919050565b60007f80ac58cd000000000000000000000000000000000000000000000000000000007bffffffffffffffffffffffffffffffffffffffffffffffffffffffff1916827bffffffffffffffffffffffffffffffffffffffffffffffffffffffff191614806124ed57507f5b5e139f000000000000000000000000000000000000000000000000000000007bffffffffffffffffffffffffffffffffffffffffffffffffffffffff1916827bffffffffffffffffffffffffffffffffffffffffffffffffffffffff1916145b806124fd57506124fc8261281f565b5b9050919050565b60008073ffffffffffffffffffffffffffffffffffffffff166002600084815260200190815260200160002060009054906101000a900473ffffffffffffffffffffffffffffffffffffffff1673ffffffffffffffffffffffffffffffffffffffff1614159050919050565b61257b838383612889565b505050565b505050565b60008151905060006a636f6e736f6c652e6c6f679050602083016000808483855afa5050505050565b6125b8838361299d565b6125c56000848484612609565b612604576040517f08c379a00000000000000000000000000000000000000000000000000000000081526004016125fb90613dd8565b60405180910390fd5b505050565b600061262a8473ffffffffffffffffffffffffffffffffffffffff16612b77565b15612793578373ffffffffffffffffffffffffffffffffffffffff1663150b7a02612653611ab0565b8786866040518563ffffffff1660e01b81526004016126759493929190613c90565b602060405180830381600087803b15801561268f57600080fd5b505af19250505080156126c057506040513d601f19601f820116820180604052508101906126bd9190613470565b60015b612743573d80600081146126f0576040519150601f19603f3d011682016040523d82523d6000602084013e6126f5565b606091505b5060008151141561273b576040517f08c379a000000000000000000000000000000000000000000000000000000000815260040161273290613dd8565b60405180910390fd5b805181602001fd5b63150b7a0260e01b7bffffffffffffffffffffffffffffffffffffffffffffffffffffffff1916817bffffffffffffffffffffffffffffffffffffffffffffffffffffffff191614915050612798565b600190505b949350505050565b606060405180602001604052806000815250905090565b60606127c282611a65565b60006127cc6127a0565b905060008151116127ec5760405180602001604052806000815250612817565b806127f684612b9a565b604051602001612807929190613b6a565b6040516020818303038152906040525b915050919050565b60007f01ffc9a7000000000000000000000000000000000000000000000000000000007bffffffffffffffffffffffffffffffffffffffffffffffffffffffff1916827bffffffffffffffffffffffffffffffffffffffffffffffffffffffff1916149050919050565b612894838383612d47565b600073ffffffffffffffffffffffffffffffffffffffff168373ffffffffffffffffffffffffffffffffffffffff1614156128d7576128d281612d4c565b612916565b8173ffffffffffffffffffffffffffffffffffffffff168373ffffffffffffffffffffffffffffffffffffffff1614612915576129148382612d95565b5b5b600073ffffffffffffffffffffffffffffffffffffffff168273ffffffffffffffffffffffffffffffffffffffff1614156129595761295481612f02565b612998565b8273ffffffffffffffffffffffffffffffffffffffff168273ffffffffffffffffffffffffffffffffffffffff1614612997576129968282613045565b5b5b505050565b600073ffffffffffffffffffffffffffffffffffffffff168273ffffffffffffffffffffffffffffffffffffffff161415612a0d576040517f08c379a0000000000000000000000000000000000000000000000000000000008152600401612a0490613f58565b60405180910390fd5b612a1681612504565b15612a56576040517f08c379a0000000000000000000000000000000000000000000000000000000008152600401612a4d90613e18565b60405180910390fd5b612a6260008383612570565b6001600360008473ffffffffffffffffffffffffffffffffffffffff1673ffffffffffffffffffffffffffffffffffffffff1681526020019081526020016000206000828254612ab29190614196565b92505081905550816002600083815260200190815260200160002060006101000a81548173ffffffffffffffffffffffffffffffffffffffff021916908373ffffffffffffffffffffffffffffffffffffffff160217905550808273ffffffffffffffffffffffffffffffffffffffff16600073ffffffffffffffffffffffffffffffffffffffff167fddf252ad1be2c89b69c2b068fc378daa952ba7f163c4a11628f55a4df523b3ef60405160405180910390a4612b7360008383612580565b5050565b6000808273ffffffffffffffffffffffffffffffffffffffff163b119050919050565b60606000821415612be2576040518060400160405280600181526020017f30000000000000000000000000000000000000000000000000000000000000008152509050612d42565b600082905060005b60008214612c14578080612bfd906143c4565b915050600a82612c0d91906141ec565b9150612bea565b60008167ffffffffffffffff811115612c56577f4e487b7100000000000000000000000000000000000000000000000000000000600052604160045260246000fd5b6040519080825280601f01601f191660200182016040528015612c885781602001600182028036833780820191505090505b5090505b60008514612d3b57600182612ca19190614277565b9150600a85612cb0919061440d565b6030612cbc9190614196565b60f81b818381518110612cf8577f4e487b7100000000000000000000000000000000000000000000000000000000600052603260045260246000fd5b60200101907effffffffffffffffffffffffffffffffffffffffffffffffffffffffffffff1916908160001a905350600a85612d3491906141ec565b9450612c8c565b8093505050505b919050565b505050565b6008805490506009600083815260200190815260200160002081905550600881908060018154018082558091505060019003906000526020600020016000909190919091505550565b60006001612da284611432565b612dac9190614277565b9050600060076000848152602001908152602001600020549050818114612e91576000600660008673ffffffffffffffffffffffffffffffffffffffff1673ffffffffffffffffffffffffffffffffffffffff168152602001908152602001600020600084815260200190815260200160002054905080600660008773ffffffffffffffffffffffffffffffffffffffff1673ffffffffffffffffffffffffffffffffffffffff168152602001908152602001600020600084815260200190815260200160002081905550816007600083815260200190815260200160002081905550505b6007600084815260200190815260200160002060009055600660008573ffffffffffffffffffffffffffffffffffffffff1673ffffffffffffffffffffffffffffffffffffffff16815260200190815260200160002060008381526020019081526020016000206000905550505050565b60006001600880549050612f169190614277565b9050600060096000848152602001908152602001600020549050600060088381548110612f6c577f4e487b7100000000000000000000000000000000000000000000000000000000600052603260045260246000fd5b906000526020600020015490508060088381548110612fb4577f4e487b7100000000000000000000000000000000000000000000000000000000600052603260045260246000fd5b906000526020600020018190555081600960008381526020019081526020016000208190555060096000858152602001908152602001600020600090556008805480613029577f4e487b7100000000000000000000000000000000000000000000000000000000600052603160045260246000fd5b6001900381819060005260206000200160009055905550505050565b600061305083611432565b905081600660008573ffffffffffffffffffffffffffffffffffffffff1673ffffffffffffffffffffffffffffffffffffffff168152602001908152602001600020600083815260200190815260200160002081905550806007600084815260200190815260200160002081905550505050565b8280546130d090614361565b90600052602060002090601f0160209004810192826130f25760008555613139565b82601f1061310b57805160ff1916838001178555613139565b82800160010185558215613139579182015b8281111561313857825182559160200191906001019061311d565b5b509050613146919061314a565b5090565b5b8082111561316357600081600090555060010161314b565b5090565b600061317a61317584614098565b614073565b90508281526020810184848401111561319257600080fd5b61319d84828561431f565b509392505050565b60006131b86131b3846140c9565b614073565b9050828152602081018484840111156131d057600080fd5b6131db84828561431f565b509392505050565b6000813590506131f281614b9b565b92915050565b60008135905061320781614bb2565b92915050565b60008135905061321c81614bc9565b92915050565b60008151905061323181614bc9565b92915050565b600082601f83011261324857600080fd5b8135613258848260208601613167565b91505092915050565b600082601f83011261327257600080fd5b81356132828482602086016131a5565b91505092915050565b60008135905061329a81614be0565b92915050565b6000602082840312156132b257600080fd5b60006132c0848285016131e3565b91505092915050565b600080604083850312156132dc57600080fd5b60006132ea858286016131e3565b92505060206132fb858286016131e3565b9150509250929050565b60008060006060848603121561331a57600080fd5b6000613328868287016131e3565b9350506020613339868287016131e3565b925050604061334a8682870161328b565b9150509250925092565b6000806000806080858703121561336a57600080fd5b6000613378878288016131e3565b9450506020613389878288016131e3565b935050604061339a8782880161328b565b925050606085013567ffffffffffffffff8111156133b757600080fd5b6133c387828801613237565b91505092959194509250565b600080604083850312156133e257600080fd5b60006133f0858286016131e3565b9250506020613401858286016131f8565b9150509250929050565b6000806040838503121561341e57600080fd5b600061342c858286016131e3565b925050602061343d8582860161328b565b9150509250929050565b60006020828403121561345957600080fd5b60006134678482850161320d565b91505092915050565b60006020828403121561348257600080fd5b600061349084828501613222565b91505092915050565b6000602082840312156134ab57600080fd5b600082013567ffffffffffffffff8111156134c557600080fd5b6134d184828501613261565b91505092915050565b600080604083850312156134ed57600080fd5b600083013567ffffffffffffffff81111561350757600080fd5b61351385828601613261565b925050602083013567ffffffffffffffff81111561353057600080fd5b61353c85828601613261565b9150509250929050565b60006020828403121561355857600080fd5b60006135668482850161328b565b91505092915050565b6000806040838503121561358257600080fd5b60006135908582860161328b565b92505060206135a18582860161328b565b9150509250929050565b60006135b783836135c3565b60208301905092915050565b6135cc816142ab565b82525050565b6135db816142ab565b82525050565b60006135ec8261411f565b6135f6818561414d565b9350613601836140fa565b8060005b8381101561363257815161361988826135ab565b975061362483614140565b925050600181019050613605565b5085935050505092915050565b613648816142bd565b82525050565b60006136598261412a565b613663818561415e565b935061367381856020860161432e565b61367c816144fa565b840191505092915050565b600061369282614135565b61369c818561417a565b93506136ac81856020860161432e565b6136b5816144fa565b840191505092915050565b60006136cb82614135565b6136d5818561418b565b93506136e581856020860161432e565b80840191505092915050565b600081546136fe81614361565b613708818661418b565b94506001821660008114613723576001811461373457613767565b60ff19831686528186019350613767565b61373d8561410a565b60005b8381101561375f57815481890152600182019150602081019050613740565b838801955050505b50505092915050565b600061377d602b8361417a565b91506137888261450b565b604082019050919050565b60006137a060328361417a565b91506137ab8261455a565b604082019050919050565b60006137c360258361417a565b91506137ce826145a9565b604082019050919050565b60006137e6601c8361417a565b91506137f1826145f8565b602082019050919050565b6000613809601a8361417a565b915061381482614621565b602082019050919050565b600061382c601c8361417a565b91506138378261464a565b602082019050919050565b600061384f60238361417a565b915061385a82614673565b604082019050919050565b600061387260668361418b565b915061387d826146c2565b606682019050919050565b600061389560248361417a565b91506138a08261475d565b604082019050919050565b60006138b860198361417a565b91506138c3826147ac565b602082019050919050565b60006138db60128361417a565b91506138e6826147d5565b602082019050919050565b60006138fe600d8361418b565b9150613909826147fe565b600d82019050919050565b600061392160298361417a565b915061392c82614827565b604082019050919050565b6000613944602e8361417a565b915061394f82614876565b604082019050919050565b600061396760028361418b565b9150613972826148c5565b600282019050919050565b600061398a603e8361417a565b9150613995826148ee565b604082019050919050565b60006139ad60208361417a565b91506139b88261493d565b602082019050919050565b60006139d060158361417a565b91506139db82614966565b602082019050919050565b60006139f360218361417a565b91506139fe8261498f565b604082019050919050565b6000613a16600e8361417a565b9150613a21826149de565b602082019050919050565b6000613a39600a8361418b565b9150613a4482614a07565b600a82019050919050565b6000613a5c60188361417a565b9150613a6782614a30565b602082019050919050565b6000613a7f60218361417a565b9150613a8a82614a59565b604082019050919050565b6000613aa2601d8361418b565b9150613aad82614aa8565b601d82019050919050565b6000613ac560008361416f565b9150613ad082614ad1565b600082019050919050565b6000613ae8602c8361417a565b9150613af382614ad4565b604082019050919050565b6000613b0b60058361418b565b9150613b1682614b23565b600582019050919050565b6000613b2e602e8361417a565b9150613b3982614b4c565b604082019050919050565b613b4d81614315565b82525050565b6000613b5f82846136c0565b915081905092915050565b6000613b7682856136c0565b9150613b8282846136c0565b91508190509392505050565b6000613b9a82846136c0565b9150613ba582613afe565b915081905092915050565b6000613bbc82876136f1565b9150613bc882866136c0565b9150613bd482856136f1565b9150613be082846136c0565b9150613beb826138f1565b915081905095945050505050565b6000613c0482613a2c565b9150613c1082856136c0565b9150613c1b82613865565b9150613c2782846136c0565b9150613c328261395a565b91508190509392505050565b6000613c4982613a95565b9150613c5582846136c0565b915081905092915050565b6000613c6b82613ab8565b9150819050919050565b6000602082019050613c8a60008301846135d2565b92915050565b6000608082019050613ca560008301876135d2565b613cb260208301866135d2565b613cbf6040830185613b44565b8181036060830152613cd1818461364e565b905095945050505050565b6000608082019050613cf160008301876135d2565b613cfe602083018661363f565b613d0b6040830185613b44565b613d186060830184613b44565b95945050505050565b600060a082019050613d3660008301886135d2565b613d43602083018761363f565b613d506040830186613b44565b613d5d6060830185613b44565b8181036080830152613d6f81846135e1565b90509695505050505050565b6000602082019050613d90600083018461363f565b92915050565b60006020820190508181036000830152613db08184613687565b905092915050565b60006020820190508181036000830152613dd181613770565b9050919050565b60006020820190508181036000830152613df181613793565b9050919050565b60006020820190508181036000830152613e11816137b6565b9050919050565b60006020820190508181036000830152613e31816137d9565b9050919050565b60006020820190508181036000830152613e51816137fc565b9050919050565b60006020820190508181036000830152613e718161381f565b9050919050565b60006020820190508181036000830152613e9181613842565b9050919050565b60006020820190508181036000830152613eb181613888565b9050919050565b60006020820190508181036000830152613ed1816138ab565b9050919050565b60006020820190508181036000830152613ef1816138ce565b9050919050565b60006020820190508181036000830152613f1181613914565b9050919050565b60006020820190508181036000830152613f3181613937565b9050919050565b60006020820190508181036000830152613f518161397d565b9050919050565b60006020820190508181036000830152613f71816139a0565b9050919050565b60006020820190508181036000830152613f91816139c3565b9050919050565b60006020820190508181036000830152613fb1816139e6565b9050919050565b60006020820190508181036000830152613fd181613a09565b9050919050565b60006020820190508181036000830152613ff181613a4f565b9050919050565b6000602082019050818103600083015261401181613a72565b9050919050565b6000602082019050818103600083015261403181613adb565b9050919050565b6000602082019050818103600083015261405181613b21565b9050919050565b600060208201905061406d6000830184613b44565b92915050565b600061407d61408e565b90506140898282614393565b919050565b6000604051905090565b600067ffffffffffffffff8211156140b3576140b26144cb565b5b6140bc826144fa565b9050602081019050919050565b600067ffffffffffffffff8211156140e4576140e36144cb565b5b6140ed826144fa565b9050602081019050919050565b6000819050602082019050919050565b60008190508160005260206000209050919050565b600081519050919050565b600081519050919050565b600081519050919050565b6000602082019050919050565b600082825260208201905092915050565b600082825260208201905092915050565b600081905092915050565b600082825260208201905092915050565b600081905092915050565b60006141a182614315565b91506141ac83614315565b9250827fffffffffffffffffffffffffffffffffffffffffffffffffffffffffffffffff038211156141e1576141e061443e565b5b828201905092915050565b60006141f782614315565b915061420283614315565b9250826142125761421161446d565b5b828204905092915050565b600061422882614315565b915061423383614315565b9250817fffffffffffffffffffffffffffffffffffffffffffffffffffffffffffffffff048311821515161561426c5761426b61443e565b5b828202905092915050565b600061428282614315565b915061428d83614315565b9250828210156142a05761429f61443e565b5b828203905092915050565b60006142b6826142f5565b9050919050565b60008115159050919050565b60007fffffffff0000000000000000000000000000000000000000000000000000000082169050919050565b600073ffffffffffffffffffffffffffffffffffffffff82169050919050565b6000819050919050565b82818337600083830152505050565b60005b8381101561434c578082015181840152602081019050614331565b8381111561435b576000848401525b50505050565b6000600282049050600182168061437957607f821691505b6020821081141561438d5761438c61449c565b5b50919050565b61439c826144fa565b810181811067ffffffffffffffff821117156143bb576143ba6144cb565b5b80604052505050565b60006143cf82614315565b91507fffffffffffffffffffffffffffffffffffffffffffffffffffffffffffffffff8214156144025761440161443e565b5b600182019050919050565b600061441882614315565b915061442383614315565b9250826144335761443261446d565b5b828206905092915050565b7f4e487b7100000000000000000000000000000000000000000000000000000000600052601160045260246000fd5b7f4e487b7100000000000000000000000000000000000000000000000000000000600052601260045260246000fd5b7f4e487b7100000000000000000000000000000000000000000000000000000000600052602260045260246000fd5b7f4e487b7100000000000000000000000000000000000000000000000000000000600052604160045260246000fd5b6000601f19601f8301169050919050565b7f455243373231456e756d657261626c653a206f776e657220696e646578206f7560008201527f74206f6620626f756e6473000000000000000000000000000000000000000000602082015250565b7f4552433732313a207472616e7366657220746f206e6f6e20455243373231526560008201527f63656976657220696d706c656d656e7465720000000000000000000000000000602082015250565b7f4552433732313a207472616e736665722066726f6d20696e636f72726563742060008201527f6f776e6572000000000000000000000000000000000000000000000000000000602082015250565b7f4552433732313a20746f6b656e20616c7265616479206d696e74656400000000600082015250565b7f4f776e65722063616e206e6f7420627579206f776e206974656d000000000000600082015250565b7f4f6e6c79204e4654206f776e65722063616e206c697374204974656d00000000600082015250565b7f696e73756666696369656e742066756e647320746f207075726368617365206960008201527f74656d0000000000000000000000000000000000000000000000000000000000602082015250565b7f222c20226465736372697074696f6e223a2022596f757220556e69717565206960008201527f64656e74697479206f6e207468652063656c6f20426c6f636b636861696e2e2260208201527f2c2022696d616765223a2022646174613a696d6167652f7376672b786d6c3b6260408201527f61736536342c0000000000000000000000000000000000000000000000000000606082015250565b7f4552433732313a207472616e7366657220746f20746865207a65726f2061646460008201527f7265737300000000000000000000000000000000000000000000000000000000602082015250565b7f4552433732313a20617070726f766520746f2063616c6c657200000000000000600082015250565b7f4e616d6520416c72656164792074616b656e0000000000000000000000000000600082015250565b7f3c2f746578743e3c2f7376673e00000000000000000000000000000000000000600082015250565b7f4552433732313a2061646472657373207a65726f206973206e6f74206120766160008201527f6c6964206f776e65720000000000000000000000000000000000000000000000602082015250565b7f45524337323155524953746f726167653a2055524920736574206f66206e6f6e60008201527f6578697374656e7420746f6b656e000000000000000000000000000000000000602082015250565b7f227d000000000000000000000000000000000000000000000000000000000000600082015250565b7f4552433732313a20617070726f76652063616c6c6572206973206e6f7420746f60008201527f6b656e206f776e6572206e6f7220617070726f76656420666f7220616c6c0000602082015250565b7f4552433732313a206d696e7420746f20746865207a65726f2061646472657373600082015250565b7f6e667420616c7265616479206661766f72697465640000000000000000000000600082015250565b7f70726963652073686f756c642062652067726561746572207468616e207a657260008201527f6f00000000000000000000000000000000000000000000000000000000000000602082015250565b7f6e6674206e6f74206c6973746564000000000000000000000000000000000000600082015250565b7f7b226e616d65223a202200000000000000000000000000000000000000000000600082015250565b7f4552433732313a20696e76616c696420746f6b656e2049440000000000000000600082015250565b7f4552433732313a20617070726f76616c20746f2063757272656e74206f776e6560008201527f7200000000000000000000000000000000000000000000000000000000000000602082015250565b7f646174613a6170706c69636174696f6e2f6a736f6e3b6261736536342c000000600082015250565b50565b7f455243373231456e756d657261626c653a20676c6f62616c20696e646578206f60008201527f7574206f6620626f756e64730000000000000000000000000000000000000000602082015250565b7f2e63656c6f000000000000000000000000000000000000000000000000000000600082015250565b7f4552433732313a2063616c6c6572206973206e6f7420746f6b656e206f776e6560008201527f72206e6f7220617070726f766564000000000000000000000000000000000000602082015250565b614ba4816142ab565b8114614baf57600080fd5b50565b614bbb816142bd565b8114614bc657600080fd5b50565b614bd2816142c9565b8114614bdd57600080fd5b50565b614be981614315565b8114614bf457600080fd5b5056fe4142434445464748494a4b4c4d4e4f505152535455565758595a6162636465666768696a6b6c6d6e6f707172737475767778797a303132333435363738392b2fa2646970667358221220bddfac38246183e22c5b40db7b8093bf14cc14bd50ecd3f09ac2fc35a413e59464736f6c634300080400333c73766720786d6c6e733d27687474703a2f2f7777772e77332e6f72672f323030302f73766727207072657365727665417370656374526174696f3d27784d696e594d696e206d656574272076696577426f783d273020302033353020333530273e3c7374796c653e2e62617365207b2066696c6c3a2077686974653b20666f6e742d66616d696c793a2073657269663b20666f6e742d73697a653a20323470783b207d3c2f7374796c653e3c726563742077696474683d273130302527206865696768743d2731303025272066696c6c3d27272f3e3c7465787420783d273530252720793d273530252720636c6173733d27626173652720646f6d696e616e742d626173656c696e653d276d6964646c652720746578742d616e63686f723d276d6964646c65273e",
  "linkReferences": {},
  "deployedLinkReferences": {}
}